{
  "contractName": "RedditAvatar",
  "abi": [
    {
      "inputs": [],
      "stateMutability": "nonpayable",
      "type": "constructor"
    },
    {
      "anonymous": false,
      "inputs": [
        {
          "indexed": true,
          "internalType": "address",
          "name": "account",
          "type": "address"
        },
        {
          "indexed": true,
          "internalType": "address",
          "name": "operator",
          "type": "address"
        },
        {
          "indexed": false,
          "internalType": "bool",
          "name": "approved",
          "type": "bool"
        }
      ],
      "name": "ApprovalForAll",
      "type": "event"
    },
    {
      "anonymous": false,
      "inputs": [
        {
          "indexed": true,
          "internalType": "address",
          "name": "operator",
          "type": "address"
        },
        {
          "indexed": true,
          "internalType": "address",
          "name": "from",
          "type": "address"
        },
        {
          "indexed": true,
          "internalType": "address",
          "name": "to",
          "type": "address"
        },
        {
          "indexed": false,
          "internalType": "uint256[]",
          "name": "ids",
          "type": "uint256[]"
        },
        {
          "indexed": false,
          "internalType": "uint256[]",
          "name": "values",
          "type": "uint256[]"
        }
      ],
      "name": "TransferBatch",
      "type": "event"
    },
    {
      "anonymous": false,
      "inputs": [
        {
          "indexed": true,
          "internalType": "address",
          "name": "operator",
          "type": "address"
        },
        {
          "indexed": true,
          "internalType": "address",
          "name": "from",
          "type": "address"
        },
        {
          "indexed": true,
          "internalType": "address",
          "name": "to",
          "type": "address"
        },
        {
          "indexed": false,
          "internalType": "uint256",
          "name": "id",
          "type": "uint256"
        },
        {
          "indexed": false,
          "internalType": "uint256",
          "name": "value",
          "type": "uint256"
        }
      ],
      "name": "TransferSingle",
      "type": "event"
    },
    {
      "anonymous": false,
      "inputs": [
        {
          "indexed": false,
          "internalType": "string",
          "name": "value",
          "type": "string"
        },
        {
          "indexed": true,
          "internalType": "uint256",
          "name": "id",
          "type": "uint256"
        }
      ],
      "name": "URI",
      "type": "event"
    },
    {
      "inputs": [],
      "name": "DEER",
      "outputs": [
        {
          "internalType": "uint256",
          "name": "",
          "type": "uint256"
        }
      ],
      "stateMutability": "view",
      "type": "function",
      "constant": true
    },
    {
      "inputs": [],
      "name": "SAVATHUN",
      "outputs": [
        {
          "internalType": "uint256",
          "name": "",
          "type": "uint256"
        }
      ],
      "stateMutability": "view",
      "type": "function",
      "constant": true
    },
    {
      "inputs": [
        {
          "internalType": "address",
          "name": "account",
          "type": "address"
        },
        {
          "internalType": "uint256",
          "name": "id",
          "type": "uint256"
        }
      ],
      "name": "balanceOf",
      "outputs": [
        {
          "internalType": "uint256",
          "name": "",
          "type": "uint256"
        }
      ],
      "stateMutability": "view",
      "type": "function",
      "constant": true
    },
    {
      "inputs": [
        {
          "internalType": "address[]",
          "name": "accounts",
          "type": "address[]"
        },
        {
          "internalType": "uint256[]",
          "name": "ids",
          "type": "uint256[]"
        }
      ],
      "name": "balanceOfBatch",
      "outputs": [
        {
          "internalType": "uint256[]",
          "name": "",
          "type": "uint256[]"
        }
      ],
      "stateMutability": "view",
      "type": "function",
      "constant": true
    },
    {
      "inputs": [
        {
          "internalType": "address",
          "name": "account",
          "type": "address"
        },
        {
          "internalType": "address",
          "name": "operator",
          "type": "address"
        }
      ],
      "name": "isApprovedForAll",
      "outputs": [
        {
          "internalType": "bool",
          "name": "",
          "type": "bool"
        }
      ],
      "stateMutability": "view",
      "type": "function",
      "constant": true
    },
    {
      "inputs": [
        {
          "internalType": "address",
          "name": "from",
          "type": "address"
        },
        {
          "internalType": "address",
          "name": "to",
          "type": "address"
        },
        {
          "internalType": "uint256[]",
          "name": "ids",
          "type": "uint256[]"
        },
        {
          "internalType": "uint256[]",
          "name": "amounts",
          "type": "uint256[]"
        },
        {
          "internalType": "bytes",
          "name": "data",
          "type": "bytes"
        }
      ],
      "name": "safeBatchTransferFrom",
      "outputs": [],
      "stateMutability": "nonpayable",
      "type": "function"
    },
    {
      "inputs": [
        {
          "internalType": "address",
          "name": "from",
          "type": "address"
        },
        {
          "internalType": "address",
          "name": "to",
          "type": "address"
        },
        {
          "internalType": "uint256",
          "name": "id",
          "type": "uint256"
        },
        {
          "internalType": "uint256",
          "name": "amount",
          "type": "uint256"
        },
        {
          "internalType": "bytes",
          "name": "data",
          "type": "bytes"
        }
      ],
      "name": "safeTransferFrom",
      "outputs": [],
      "stateMutability": "nonpayable",
      "type": "function"
    },
    {
      "inputs": [
        {
          "internalType": "address",
          "name": "operator",
          "type": "address"
        },
        {
          "internalType": "bool",
          "name": "approved",
          "type": "bool"
        }
      ],
      "name": "setApprovalForAll",
      "outputs": [],
      "stateMutability": "nonpayable",
      "type": "function"
    },
    {
      "inputs": [
        {
          "internalType": "bytes4",
          "name": "interfaceId",
          "type": "bytes4"
        }
      ],
      "name": "supportsInterface",
      "outputs": [
        {
          "internalType": "bool",
          "name": "",
          "type": "bool"
        }
      ],
      "stateMutability": "view",
      "type": "function",
      "constant": true
    },
    {
      "inputs": [
        {
          "internalType": "uint256",
          "name": "",
          "type": "uint256"
        }
      ],
      "name": "uri",
      "outputs": [
        {
          "internalType": "string",
          "name": "",
          "type": "string"
        }
      ],
      "stateMutability": "view",
      "type": "function",
      "constant": true
    },
    {
      "inputs": [
        {
          "internalType": "uint256",
          "name": "_id",
          "type": "uint256"
        },
        {
          "internalType": "uint256",
          "name": "_amount",
          "type": "uint256"
        }
      ],
      "name": "mint",
      "outputs": [],
      "stateMutability": "nonpayable",
      "type": "function"
    },
    {
      "inputs": [
        {
          "internalType": "uint256[]",
          "name": "_ids",
          "type": "uint256[]"
        },
        {
          "internalType": "uint256[]",
          "name": "_amounts",
          "type": "uint256[]"
        }
      ],
      "name": "mintBatch",
      "outputs": [],
      "stateMutability": "nonpayable",
      "type": "function"
    },
    {
      "inputs": [
        {
          "internalType": "string",
          "name": "_prefix",
          "type": "string"
        },
        {
          "internalType": "string",
          "name": "_suffix",
          "type": "string"
        }
      ],
      "name": "setMetadataURI",
      "outputs": [],
      "stateMutability": "nonpayable",
      "type": "function"
    }
  ],
  "bytecode": "0x60806040523480156200001157600080fd5b50604051806020016040528060008152506200003381620000c360201b60201c565b5060405180608001604052806058815260200162003aef605891396004908051906020019062000065929190620005d7565b5060405180606001604052806039815260200162003ab6603991396005908051906020019062000097929190620005d7565b50620000bd336001606460405180602001604052806000815250620000df60201b60201c565b62000c86565b8060029080519060200190620000db929190620005d7565b5050565b600073ffffffffffffffffffffffffffffffffffffffff168473ffffffffffffffffffffffffffffffffffffffff16141562000152576040517f08c379a0000000000000000000000000000000000000000000000000000000008152600401620001499062000972565b60405180910390fd5b600062000164620002c760201b60201c565b905060006200017985620002cf60201b60201c565b905060006200018e85620002cf60201b60201c565b9050620001a7836000898585896200039860201b60201c565b8460008088815260200190815260200160002060008973ffffffffffffffffffffffffffffffffffffffff1673ffffffffffffffffffffffffffffffffffffffff1681526020019081526020016000206000828254620002089190620009f9565b925050819055508673ffffffffffffffffffffffffffffffffffffffff16600073ffffffffffffffffffffffffffffffffffffffff168473ffffffffffffffffffffffffffffffffffffffff167fc3d58168c5ae7397731d063d5bbf3d657854427343f4c083240f7aacaa2d0f6289896040516200028892919062000994565b60405180910390a4620002a783600089858589620003a060201b60201c565b620002be83600089898989620003a860201b60201c565b50505050505050565b600033905090565b60606000600167ffffffffffffffff81111562000315577f4e487b7100000000000000000000000000000000000000000000000000000000600052604160045260246000fd5b604051908082528060200260200182016040528015620003445781602001602082028036833780820191505090505b509050828160008151811062000383577f4e487b7100000000000000000000000000000000000000000000000000000000600052603260045260246000fd5b60200260200101818152505080915050919050565b505050505050565b505050505050565b620003d48473ffffffffffffffffffffffffffffffffffffffff166200059860201b620008fd1760201c565b1562000590578373ffffffffffffffffffffffffffffffffffffffff1663f23a6e6187878686866040518663ffffffff1660e01b81526004016200041d959493929190620008a6565b602060405180830381600087803b1580156200043857600080fd5b505af19250505080156200046c57506040513d601f19601f820116820180604052508101906200046991906200069e565b60015b62000504576200047b62000ba8565b80620004885750620004c7565b806040517f08c379a0000000000000000000000000000000000000000000000000000000008152600401620004be91906200090a565b60405180910390fd5b6040517f08c379a0000000000000000000000000000000000000000000000000000000008152600401620004fb906200092e565b60405180910390fd5b63f23a6e6160e01b7bffffffffffffffffffffffffffffffffffffffffffffffffffffffff1916817bffffffffffffffffffffffffffffffffffffffffffffffffffffffff1916146200058e576040517f08c379a0000000000000000000000000000000000000000000000000000000008152600401620005859062000950565b60405180910390fd5b505b505050505050565b6000808273ffffffffffffffffffffffffffffffffffffffff16803b806020016040519081016040528181526000908060200190933c51119050919050565b828054620005e59062000af6565b90600052602060002090601f01602090048101928262000609576000855562000655565b82601f106200062457805160ff191683800117855562000655565b8280016001018555821562000655579182015b828111156200065457825182559160200191906001019062000637565b5b50905062000664919062000668565b5090565b5b808211156200068357600081600090555060010162000669565b5090565b600081519050620006988162000c6c565b92915050565b600060208284031215620006b157600080fd5b6000620006c18482850162000687565b91505092915050565b620006d58162000a56565b82525050565b6000620006e882620009c1565b620006f48185620009d7565b93506200070681856020860162000ac0565b620007118162000b8a565b840191505092915050565b60006200072982620009cc565b620007358185620009e8565b93506200074781856020860162000ac0565b620007528162000b8a565b840191505092915050565b60006200076c603483620009e8565b91507f455243313135353a207472616e7366657220746f206e6f6e204552433131353560008301527f526563656976657220696d706c656d656e7465720000000000000000000000006020830152604082019050919050565b6000620007d4602883620009e8565b91507f455243313135353a204552433131353552656365697665722072656a6563746560008301527f6420746f6b656e730000000000000000000000000000000000000000000000006020830152604082019050919050565b60006200083c602183620009e8565b91507f455243313135353a206d696e7420746f20746865207a65726f2061646472657360008301527f73000000000000000000000000000000000000000000000000000000000000006020830152604082019050919050565b620008a08162000ab6565b82525050565b600060a082019050620008bd6000830188620006ca565b620008cc6020830187620006ca565b620008db604083018662000895565b620008ea606083018562000895565b8181036080830152620008fe8184620006db565b90509695505050505050565b600060208201905081810360008301526200092681846200071c565b905092915050565b6000602082019050818103600083015262000949816200075d565b9050919050565b600060208201905081810360008301526200096b81620007c5565b9050919050565b600060208201905081810360008301526200098d816200082d565b9050919050565b6000604082019050620009ab600083018562000895565b620009ba602083018462000895565b9392505050565b600081519050919050565b600081519050919050565b600082825260208201905092915050565b600082825260208201905092915050565b600062000a068262000ab6565b915062000a138362000ab6565b9250827fffffffffffffffffffffffffffffffffffffffffffffffffffffffffffffffff0382111562000a4b5762000a4a62000b2c565b5b828201905092915050565b600062000a638262000a96565b9050919050565b60007fffffffff0000000000000000000000000000000000000000000000000000000082169050919050565b600073ffffffffffffffffffffffffffffffffffffffff82169050919050565b6000819050919050565b60005b8381101562000ae057808201518184015260208101905062000ac3565b8381111562000af0576000848401525b50505050565b6000600282049050600182168062000b0f57607f821691505b6020821081141562000b265762000b2562000b5b565b5b50919050565b7f4e487b7100000000000000000000000000000000000000000000000000000000600052601160045260246000fd5b7f4e487b7100000000000000000000000000000000000000000000000000000000600052602260045260246000fd5b6000601f19601f8301169050919050565b60008160e01c9050919050565b600060443d101562000bba5762000c69565b60046000803e62000bcd60005162000b9b565b6308c379a0811462000be0575062000c69565b60405160043d036004823e80513d602482011167ffffffffffffffff8211171562000c0e5750505062000c69565b808201805167ffffffffffffffff81111562000c2f57505050505062000c69565b8060208301013d850181111562000c4c5750505050505062000c69565b62000c578262000b8a565b60208401016040528296505050505050505b90565b62000c778162000a6a565b811462000c8357600080fd5b50565b612e208062000c966000396000f3fe608060405234801561001057600080fd5b50600436106100ce5760003560e01c80632eb2c2d61161008c578063a22cb46511610066578063a22cb46514610223578063d351cfdc1461023f578063e985e9c51461025b578063f242432a1461028b576100ce565b80632eb2c2d6146101b95780634e1273f4146101d55780637762454314610205576100ce565b8062fdd58e146100d357806301ffc9a7146101035780630e89341c146101335780631a157e0a146101635780631b2ef1ca1461017f57806326d71d681461019b575b600080fd5b6100ed60048036038101906100e89190611e93565b6102a7565b6040516100fa9190612908565b60405180910390f35b61011d60048036038101906101189190611fa7565b610370565b60405161012a919061276b565b60405180910390f35b61014d60048036038101906101489190612065565b610452565b60405161015a9190612786565b60405180910390f35b61017d60048036038101906101789190611ff9565b6104e6565b005b6101996004803603810190610194919061208e565b610518565b005b6101a3610537565b6040516101b09190612908565b60405180910390f35b6101d360048036038101906101ce9190611d09565b61053c565b005b6101ef60048036038101906101ea9190611ecf565b6105dd565b6040516101fc9190612712565b60405180910390f35b61020d61078e565b60405161021a9190612908565b60405180910390f35b61023d60048036038101906102389190611e57565b610793565b005b61025960048036038101906102549190611f3b565b6107a9565b005b61027560048036038101906102709190611ccd565b6107c8565b604051610282919061276b565b60405180910390f35b6102a560048036038101906102a09190611dc8565b61085c565b005b60008073ffffffffffffffffffffffffffffffffffffffff168373ffffffffffffffffffffffffffffffffffffffff161415610318576040517f08c379a000000000000000000000000000000000000000000000000000000000815260040161030f906127e8565b60405180910390fd5b60008083815260200190815260200160002060008473ffffffffffffffffffffffffffffffffffffffff1673ffffffffffffffffffffffffffffffffffffffff16815260200190815260200160002054905092915050565b60007fd9b67a26000000000000000000000000000000000000000000000000000000007bffffffffffffffffffffffffffffffffffffffffffffffffffffffff1916827bffffffffffffffffffffffffffffffffffffffffffffffffffffffff1916148061043b57507f0e89341c000000000000000000000000000000000000000000000000000000007bffffffffffffffffffffffffffffffffffffffffffffffffffffffff1916827bffffffffffffffffffffffffffffffffffffffffffffffffffffffff1916145b8061044b575061044a8261093c565b5b9050919050565b60606002805461046190612bb2565b80601f016020809104026020016040519081016040528092919081815260200182805461048d90612bb2565b80156104da5780601f106104af576101008083540402835291602001916104da565b820191906000526020600020905b8154815290600101906020018083116104bd57829003601f168201915b50505050509050919050565b81600490805190602001906104fc9291906119c5565b5080600590805190602001906105139291906119c5565b505050565b610533338383604051806020016040528060008152506109a6565b5050565b600181565b610544610b57565b73ffffffffffffffffffffffffffffffffffffffff168573ffffffffffffffffffffffffffffffffffffffff16148061058a575061058985610584610b57565b6107c8565b5b6105c9576040517f08c379a00000000000000000000000000000000000000000000000000000000081526004016105c090612848565b60405180910390fd5b6105d68585858585610b5f565b5050505050565b60608151835114610623576040517f08c379a000000000000000000000000000000000000000000000000000000000815260040161061a906128a8565b60405180910390fd5b6000835167ffffffffffffffff811115610666577f4e487b7100000000000000000000000000000000000000000000000000000000600052604160045260246000fd5b6040519080825280602002602001820160405280156106945781602001602082028036833780820191505090505b50905060005b84518110156107835761072d8582815181106106df577f4e487b7100000000000000000000000000000000000000000000000000000000600052603260045260246000fd5b6020026020010151858381518110610720577f4e487b7100000000000000000000000000000000000000000000000000000000600052603260045260246000fd5b60200260200101516102a7565b828281518110610766577f4e487b7100000000000000000000000000000000000000000000000000000000600052603260045260246000fd5b6020026020010181815250508061077c90612be4565b905061069a565b508091505092915050565b600281565b6107a561079e610b57565b8383610ecd565b5050565b6107c43383836040518060200160405280600081525061103a565b5050565b6000600160008473ffffffffffffffffffffffffffffffffffffffff1673ffffffffffffffffffffffffffffffffffffffff16815260200190815260200160002060008373ffffffffffffffffffffffffffffffffffffffff1673ffffffffffffffffffffffffffffffffffffffff16815260200190815260200160002060009054906101000a900460ff16905092915050565b610864610b57565b73ffffffffffffffffffffffffffffffffffffffff168573ffffffffffffffffffffffffffffffffffffffff1614806108aa57506108a9856108a4610b57565b6107c8565b5b6108e9576040517f08c379a00000000000000000000000000000000000000000000000000000000081526004016108e090612808565b60405180910390fd5b6108f685858585856112b3565b5050505050565b6000808273ffffffffffffffffffffffffffffffffffffffff16803b806020016040519081016040528181526000908060200190933c51119050919050565b60007f01ffc9a7000000000000000000000000000000000000000000000000000000007bffffffffffffffffffffffffffffffffffffffffffffffffffffffff1916827bffffffffffffffffffffffffffffffffffffffffffffffffffffffff1916149050919050565b600073ffffffffffffffffffffffffffffffffffffffff168473ffffffffffffffffffffffffffffffffffffffff161415610a16576040517f08c379a0000000000000000000000000000000000000000000000000000000008152600401610a0d906128e8565b60405180910390fd5b6000610a20610b57565b90506000610a2d8561154f565b90506000610a3a8561154f565b9050610a4b83600089858589611615565b8460008088815260200190815260200160002060008973ffffffffffffffffffffffffffffffffffffffff1673ffffffffffffffffffffffffffffffffffffffff1681526020019081526020016000206000828254610aaa9190612aa6565b925050819055508673ffffffffffffffffffffffffffffffffffffffff16600073ffffffffffffffffffffffffffffffffffffffff168473ffffffffffffffffffffffffffffffffffffffff167fc3d58168c5ae7397731d063d5bbf3d657854427343f4c083240f7aacaa2d0f628989604051610b28929190612923565b60405180910390a4610b3f8360008985858961161d565b610b4e83600089898989611625565b50505050505050565b600033905090565b8151835114610ba3576040517f08c379a0000000000000000000000000000000000000000000000000000000008152600401610b9a906128c8565b60405180910390fd5b600073ffffffffffffffffffffffffffffffffffffffff168473ffffffffffffffffffffffffffffffffffffffff161415610c13576040517f08c379a0000000000000000000000000000000000000000000000000000000008152600401610c0a90612828565b60405180910390fd5b6000610c1d610b57565b9050610c2d818787878787611615565b60005b8451811015610e2a576000858281518110610c74577f4e487b7100000000000000000000000000000000000000000000000000000000600052603260045260246000fd5b602002602001015190506000858381518110610cb9577f4e487b7100000000000000000000000000000000000000000000000000000000600052603260045260246000fd5b60200260200101519050600080600084815260200190815260200160002060008b73ffffffffffffffffffffffffffffffffffffffff1673ffffffffffffffffffffffffffffffffffffffff16815260200190815260200160002054905081811015610d5a576040517f08c379a0000000000000000000000000000000000000000000000000000000008152600401610d5190612868565b60405180910390fd5b81810360008085815260200190815260200160002060008c73ffffffffffffffffffffffffffffffffffffffff1673ffffffffffffffffffffffffffffffffffffffff168152602001908152602001600020819055508160008085815260200190815260200160002060008b73ffffffffffffffffffffffffffffffffffffffff1673ffffffffffffffffffffffffffffffffffffffff1681526020019081526020016000206000828254610e0f9190612aa6565b9250508190555050505080610e2390612be4565b9050610c30565b508473ffffffffffffffffffffffffffffffffffffffff168673ffffffffffffffffffffffffffffffffffffffff168273ffffffffffffffffffffffffffffffffffffffff167f4a39dc06d4c0dbc64b70af90fd698a233a518aa5d07e595d983b8c0526c8f7fb8787604051610ea1929190612734565b60405180910390a4610eb781878787878761161d565b610ec58187878787876117f5565b505050505050565b8173ffffffffffffffffffffffffffffffffffffffff168373ffffffffffffffffffffffffffffffffffffffff161415610f3c576040517f08c379a0000000000000000000000000000000000000000000000000000000008152600401610f3390612888565b60405180910390fd5b80600160008573ffffffffffffffffffffffffffffffffffffffff1673ffffffffffffffffffffffffffffffffffffffff16815260200190815260200160002060008473ffffffffffffffffffffffffffffffffffffffff1673ffffffffffffffffffffffffffffffffffffffff16815260200190815260200160002060006101000a81548160ff0219169083151502179055508173ffffffffffffffffffffffffffffffffffffffff168373ffffffffffffffffffffffffffffffffffffffff167f17307eab39ab6107e8899845ad3d59bd9653f200f220920489ca2b5937696c318360405161102d919061276b565b60405180910390a3505050565b600073ffffffffffffffffffffffffffffffffffffffff168473ffffffffffffffffffffffffffffffffffffffff1614156110aa576040517f08c379a00000000000000000000000000000000000000000000000000000000081526004016110a1906128e8565b60405180910390fd5b81518351146110ee576040517f08c379a00000000000000000000000000000000000000000000000000000000081526004016110e5906128c8565b60405180910390fd5b60006110f8610b57565b905061110981600087878787611615565b60005b845181101561120e5783818151811061114e577f4e487b7100000000000000000000000000000000000000000000000000000000600052603260045260246000fd5b6020026020010151600080878481518110611192577f4e487b7100000000000000000000000000000000000000000000000000000000600052603260045260246000fd5b6020026020010151815260200190815260200160002060008873ffffffffffffffffffffffffffffffffffffffff1673ffffffffffffffffffffffffffffffffffffffff16815260200190815260200160002060008282546111f49190612aa6565b92505081905550808061120690612be4565b91505061110c565b508473ffffffffffffffffffffffffffffffffffffffff16600073ffffffffffffffffffffffffffffffffffffffff168273ffffffffffffffffffffffffffffffffffffffff167f4a39dc06d4c0dbc64b70af90fd698a233a518aa5d07e595d983b8c0526c8f7fb8787604051611286929190612734565b60405180910390a461129d8160008787878761161d565b6112ac816000878787876117f5565b5050505050565b600073ffffffffffffffffffffffffffffffffffffffff168473ffffffffffffffffffffffffffffffffffffffff161415611323576040517f08c379a000000000000000000000000000000000000000000000000000000000815260040161131a90612828565b60405180910390fd5b600061132d610b57565b9050600061133a8561154f565b905060006113478561154f565b9050611357838989858589611615565b600080600088815260200190815260200160002060008a73ffffffffffffffffffffffffffffffffffffffff1673ffffffffffffffffffffffffffffffffffffffff168152602001908152602001600020549050858110156113ee576040517f08c379a00000000000000000000000000000000000000000000000000000000081526004016113e590612868565b60405180910390fd5b85810360008089815260200190815260200160002060008b73ffffffffffffffffffffffffffffffffffffffff1673ffffffffffffffffffffffffffffffffffffffff168152602001908152602001600020819055508560008089815260200190815260200160002060008a73ffffffffffffffffffffffffffffffffffffffff1673ffffffffffffffffffffffffffffffffffffffff16815260200190815260200160002060008282546114a39190612aa6565b925050819055508773ffffffffffffffffffffffffffffffffffffffff168973ffffffffffffffffffffffffffffffffffffffff168573ffffffffffffffffffffffffffffffffffffffff167fc3d58168c5ae7397731d063d5bbf3d657854427343f4c083240f7aacaa2d0f628a8a604051611520929190612923565b60405180910390a4611536848a8a86868a61161d565b611544848a8a8a8a8a611625565b505050505050505050565b60606000600167ffffffffffffffff811115611594577f4e487b7100000000000000000000000000000000000000000000000000000000600052604160045260246000fd5b6040519080825280602002602001820160405280156115c25781602001602082028036833780820191505090505b5090508281600081518110611600577f4e487b7100000000000000000000000000000000000000000000000000000000600052603260045260246000fd5b60200260200101818152505080915050919050565b505050505050565b505050505050565b6116448473ffffffffffffffffffffffffffffffffffffffff166108fd565b156117ed578373ffffffffffffffffffffffffffffffffffffffff1663f23a6e6187878686866040518663ffffffff1660e01b815260040161168a9594939291906126b8565b602060405180830381600087803b1580156116a457600080fd5b505af19250505080156116d557506040513d601f19601f820116820180604052508101906116d29190611fd0565b60015b611764576116e1612cd8565b806116ec5750611729565b806040517f08c379a00000000000000000000000000000000000000000000000000000000081526004016117209190612786565b60405180910390fd5b6040517f08c379a000000000000000000000000000000000000000000000000000000000815260040161175b906127a8565b60405180910390fd5b63f23a6e6160e01b7bffffffffffffffffffffffffffffffffffffffffffffffffffffffff1916817bffffffffffffffffffffffffffffffffffffffffffffffffffffffff1916146117eb576040517f08c379a00000000000000000000000000000000000000000000000000000000081526004016117e2906127c8565b60405180910390fd5b505b505050505050565b6118148473ffffffffffffffffffffffffffffffffffffffff166108fd565b156119bd578373ffffffffffffffffffffffffffffffffffffffff1663bc197c8187878686866040518663ffffffff1660e01b815260040161185a959493929190612650565b602060405180830381600087803b15801561187457600080fd5b505af19250505080156118a557506040513d601f19601f820116820180604052508101906118a29190611fd0565b60015b611934576118b1612cd8565b806118bc57506118f9565b806040517f08c379a00000000000000000000000000000000000000000000000000000000081526004016118f09190612786565b60405180910390fd5b6040517f08c379a000000000000000000000000000000000000000000000000000000000815260040161192b906127a8565b60405180910390fd5b63bc197c8160e01b7bffffffffffffffffffffffffffffffffffffffffffffffffffffffff1916817bffffffffffffffffffffffffffffffffffffffffffffffffffffffff1916146119bb576040517f08c379a00000000000000000000000000000000000000000000000000000000081526004016119b2906127c8565b60405180910390fd5b505b505050505050565b8280546119d190612bb2565b90600052602060002090601f0160209004810192826119f35760008555611a3a565b82601f10611a0c57805160ff1916838001178555611a3a565b82800160010185558215611a3a579182015b82811115611a39578251825591602001919060010190611a1e565b5b509050611a479190611a4b565b5090565b5b80821115611a64576000816000905550600101611a4c565b5090565b6000611a7b611a768461297d565b61294c565b90508083825260208201905082856020860282011115611a9a57600080fd5b60005b85811015611aca5781611ab08882611bbc565b845260208401935060208301925050600181019050611a9d565b5050509392505050565b6000611ae7611ae2846129a9565b61294c565b90508083825260208201905082856020860282011115611b0657600080fd5b60005b85811015611b365781611b1c8882611cb8565b845260208401935060208301925050600181019050611b09565b5050509392505050565b6000611b53611b4e846129d5565b61294c565b905082815260208101848484011115611b6b57600080fd5b611b76848285612b70565b509392505050565b6000611b91611b8c84612a05565b61294c565b905082815260208101848484011115611ba957600080fd5b611bb4848285612b70565b509392505050565b600081359050611bcb81612d8e565b92915050565b600082601f830112611be257600080fd5b8135611bf2848260208601611a68565b91505092915050565b600082601f830112611c0c57600080fd5b8135611c1c848260208601611ad4565b91505092915050565b600081359050611c3481612da5565b92915050565b600081359050611c4981612dbc565b92915050565b600081519050611c5e81612dbc565b92915050565b600082601f830112611c7557600080fd5b8135611c85848260208601611b40565b91505092915050565b600082601f830112611c9f57600080fd5b8135611caf848260208601611b7e565b91505092915050565b600081359050611cc781612dd3565b92915050565b60008060408385031215611ce057600080fd5b6000611cee85828601611bbc565b9250506020611cff85828601611bbc565b9150509250929050565b600080600080600060a08688031215611d2157600080fd5b6000611d2f88828901611bbc565b9550506020611d4088828901611bbc565b945050604086013567ffffffffffffffff811115611d5d57600080fd5b611d6988828901611bfb565b935050606086013567ffffffffffffffff811115611d8657600080fd5b611d9288828901611bfb565b925050608086013567ffffffffffffffff811115611daf57600080fd5b611dbb88828901611c64565b9150509295509295909350565b600080600080600060a08688031215611de057600080fd5b6000611dee88828901611bbc565b9550506020611dff88828901611bbc565b9450506040611e1088828901611cb8565b9350506060611e2188828901611cb8565b925050608086013567ffffffffffffffff811115611e3e57600080fd5b611e4a88828901611c64565b9150509295509295909350565b60008060408385031215611e6a57600080fd5b6000611e7885828601611bbc565b9250506020611e8985828601611c25565b9150509250929050565b60008060408385031215611ea657600080fd5b6000611eb485828601611bbc565b9250506020611ec585828601611cb8565b9150509250929050565b60008060408385031215611ee257600080fd5b600083013567ffffffffffffffff811115611efc57600080fd5b611f0885828601611bd1565b925050602083013567ffffffffffffffff811115611f2557600080fd5b611f3185828601611bfb565b9150509250929050565b60008060408385031215611f4e57600080fd5b600083013567ffffffffffffffff811115611f6857600080fd5b611f7485828601611bfb565b925050602083013567ffffffffffffffff811115611f9157600080fd5b611f9d85828601611bfb565b9150509250929050565b600060208284031215611fb957600080fd5b6000611fc784828501611c3a565b91505092915050565b600060208284031215611fe257600080fd5b6000611ff084828501611c4f565b91505092915050565b6000806040838503121561200c57600080fd5b600083013567ffffffffffffffff81111561202657600080fd5b61203285828601611c8e565b925050602083013567ffffffffffffffff81111561204f57600080fd5b61205b85828601611c8e565b9150509250929050565b60006020828403121561207757600080fd5b600061208584828501611cb8565b91505092915050565b600080604083850312156120a157600080fd5b60006120af85828601611cb8565b92505060206120c085828601611cb8565b9150509250929050565b60006120d68383612632565b60208301905092915050565b6120eb81612afc565b82525050565b60006120fc82612a45565b6121068185612a73565b935061211183612a35565b8060005b8381101561214257815161212988826120ca565b975061213483612a66565b925050600181019050612115565b5085935050505092915050565b61215881612b0e565b82525050565b600061216982612a50565b6121738185612a84565b9350612183818560208601612b7f565b61218c81612cba565b840191505092915050565b60006121a282612a5b565b6121ac8185612a95565b93506121bc818560208601612b7f565b6121c581612cba565b840191505092915050565b60006121dd603483612a95565b91507f455243313135353a207472616e7366657220746f206e6f6e204552433131353560008301527f526563656976657220696d706c656d656e7465720000000000000000000000006020830152604082019050919050565b6000612243602883612a95565b91507f455243313135353a204552433131353552656365697665722072656a6563746560008301527f6420746f6b656e730000000000000000000000000000000000000000000000006020830152604082019050919050565b60006122a9602b83612a95565b91507f455243313135353a2062616c616e636520717565727920666f7220746865207a60008301527f65726f20616464726573730000000000000000000000000000000000000000006020830152604082019050919050565b600061230f602983612a95565b91507f455243313135353a2063616c6c6572206973206e6f74206f776e6572206e6f7260008301527f20617070726f76656400000000000000000000000000000000000000000000006020830152604082019050919050565b6000612375602583612a95565b91507f455243313135353a207472616e7366657220746f20746865207a65726f20616460008301527f64726573730000000000000000000000000000000000000000000000000000006020830152604082019050919050565b60006123db603283612a95565b91507f455243313135353a207472616e736665722063616c6c6572206973206e6f742060008301527f6f776e6572206e6f7220617070726f76656400000000000000000000000000006020830152604082019050919050565b6000612441602a83612a95565b91507f455243313135353a20696e73756666696369656e742062616c616e636520666f60008301527f72207472616e73666572000000000000000000000000000000000000000000006020830152604082019050919050565b60006124a7602983612a95565b91507f455243313135353a2073657474696e6720617070726f76616c2073746174757360008301527f20666f722073656c6600000000000000000000000000000000000000000000006020830152604082019050919050565b600061250d602983612a95565b91507f455243313135353a206163636f756e747320616e6420696473206c656e67746860008301527f206d69736d6174636800000000000000000000000000000000000000000000006020830152604082019050919050565b6000612573602883612a95565b91507f455243313135353a2069647320616e6420616d6f756e7473206c656e6774682060008301527f6d69736d617463680000000000000000000000000000000000000000000000006020830152604082019050919050565b60006125d9602183612a95565b91507f455243313135353a206d696e7420746f20746865207a65726f2061646472657360008301527f73000000000000000000000000000000000000000000000000000000000000006020830152604082019050919050565b61263b81612b66565b82525050565b61264a81612b66565b82525050565b600060a08201905061266560008301886120e2565b61267260208301876120e2565b818103604083015261268481866120f1565b9050818103606083015261269881856120f1565b905081810360808301526126ac818461215e565b90509695505050505050565b600060a0820190506126cd60008301886120e2565b6126da60208301876120e2565b6126e76040830186612641565b6126f46060830185612641565b8181036080830152612706818461215e565b90509695505050505050565b6000602082019050818103600083015261272c81846120f1565b905092915050565b6000604082019050818103600083015261274e81856120f1565b9050818103602083015261276281846120f1565b90509392505050565b6000602082019050612780600083018461214f565b92915050565b600060208201905081810360008301526127a08184612197565b905092915050565b600060208201905081810360008301526127c1816121d0565b9050919050565b600060208201905081810360008301526127e181612236565b9050919050565b600060208201905081810360008301526128018161229c565b9050919050565b6000602082019050818103600083015261282181612302565b9050919050565b6000602082019050818103600083015261284181612368565b9050919050565b60006020820190508181036000830152612861816123ce565b9050919050565b6000602082019050818103600083015261288181612434565b9050919050565b600060208201905081810360008301526128a18161249a565b9050919050565b600060208201905081810360008301526128c181612500565b9050919050565b600060208201905081810360008301526128e181612566565b9050919050565b60006020820190508181036000830152612901816125cc565b9050919050565b600060208201905061291d6000830184612641565b92915050565b60006040820190506129386000830185612641565b6129456020830184612641565b9392505050565b6000604051905081810181811067ffffffffffffffff8211171561297357612972612c8b565b5b8060405250919050565b600067ffffffffffffffff82111561299857612997612c8b565b5b602082029050602081019050919050565b600067ffffffffffffffff8211156129c4576129c3612c8b565b5b602082029050602081019050919050565b600067ffffffffffffffff8211156129f0576129ef612c8b565b5b601f19601f8301169050602081019050919050565b600067ffffffffffffffff821115612a2057612a1f612c8b565b5b601f19601f8301169050602081019050919050565b6000819050602082019050919050565b600081519050919050565b600081519050919050565b600081519050919050565b6000602082019050919050565b600082825260208201905092915050565b600082825260208201905092915050565b600082825260208201905092915050565b6000612ab182612b66565b9150612abc83612b66565b9250827fffffffffffffffffffffffffffffffffffffffffffffffffffffffffffffffff03821115612af157612af0612c2d565b5b828201905092915050565b6000612b0782612b46565b9050919050565b60008115159050919050565b60007fffffffff0000000000000000000000000000000000000000000000000000000082169050919050565b600073ffffffffffffffffffffffffffffffffffffffff82169050919050565b6000819050919050565b82818337600083830152505050565b60005b83811015612b9d578082015181840152602081019050612b82565b83811115612bac576000848401525b50505050565b60006002820490506001821680612bca57607f821691505b60208210811415612bde57612bdd612c5c565b5b50919050565b6000612bef82612b66565b91507fffffffffffffffffffffffffffffffffffffffffffffffffffffffffffffffff821415612c2257612c21612c2d565b5b600182019050919050565b7f4e487b7100000000000000000000000000000000000000000000000000000000600052601160045260246000fd5b7f4e487b7100000000000000000000000000000000000000000000000000000000600052602260045260246000fd5b7f4e487b7100000000000000000000000000000000000000000000000000000000600052604160045260246000fd5b6000601f19601f8301169050919050565b60008160e01c9050919050565b600060443d1015612ce857612d8b565b60046000803e612cf9600051612ccb565b6308c379a08114612d0a5750612d8b565b60405160043d036004823e80513d602482011167ffffffffffffffff82111715612d3657505050612d8b565b808201805167ffffffffffffffff811115612d55575050505050612d8b565b8060208301013d8501811115612d7057505050505050612d8b565b612d7982612cba565b60208401016040528296505050505050505b90565b612d9781612afc565b8114612da257600080fd5b50565b612dae81612b0e565b8114612db957600080fd5b50565b612dc581612b1a565b8114612dd057600080fd5b50565b612ddc81612b66565b8114612de757600080fd5b5056fea2646970667358221220c3a155f5bfd7ef67246dd9068b91a2ea7dc78921015fae8b62d542e615f7934a64736f6c634300080000332e706e673f616c743d6d6564696126746f6b656e3d39396536333135322d663762632d343232382d383330332d35653236393364303664393968747470733a2f2f666972656261736573746f726167652e676f6f676c65617069732e636f6d2f76302f622f6d792d7265646469742d6176617461722e61707073706f742e636f6d2f6f2f7265646469742d617661746172",
  "immutableReferences": {},
  "source": "// SPDX-License-Identifier: MIT\n\npragma solidity ^0.8.0;\n\nimport \"../node_modules/@openzeppelin/contracts/token/ERC1155/ERC1155.sol\";\nimport \"../node_modules/@openzeppelin/contracts/utils/Counters.sol\";\nimport \"../node_modules/@openzeppelin/contracts/utils/Strings.sol\";\n\ncontract RedditAvatar is ERC1155 {\n    using Counters for Counters.Counter;\n    Counters.Counter private _tokenCounter;\n\n    uint256 public constant SAVATHUN = 1;\n    uint256 public constant DEER = 2;\n\n    string baseMetadataURIPrefix;\n    string baseMetadataURISuffix;\n\n    // \n    constructor() ERC1155(\"\"){\n        baseMetadataURIPrefix = \"https://firebasestorage.googleapis.com/v0/b/my-reddit-avatar.appspot.com/o/reddit-avatar\";\n        baseMetadataURISuffix = \".png?alt=media&token=99e63152-f7bc-4228-8303-5e2693d06d99\";\n\n        _mint(msg.sender, SAVATHUN, 100, \"\");\n    }\n    \n    // msg.sendermint()\n    function mint(uint256 _id, uint256 _amount) public {\n        _mint(msg.sender, _id, _amount, \"\");\n    }\n\n    // mint()\n    function mintBatch(uint256[] memory _ids, uint256[] memory _amounts) public {\n        _mintBatch(msg.sender, _ids, _amounts, \"\");\n    }\n\n    // URI\n    function setMetadataURI(string memory _prefix, string memory _suffix) public {\n        baseMetadataURIPrefix = _prefix;\n        baseMetadataURISuffix = _suffix;\n    }\n}\n",
  "sourcePath": "/Users/takagihrs/Desktop/MyProject/dapp/reddit-avatar-on-ERC1155/contracts/RedditAvater.sol",
  "compiler": {
    "name": "solc",
    "version": "0.8.0+commit.c7dfd78e.Emscripten.clang"
  },
  "schemaVersion": "3.4.7",
  "updatedAt": "2022-05-07T08:22:29.750Z",
  "networkType": "ethereum",
  "devdoc": {
    "kind": "dev",
    "methods": {
      "balanceOf(address,uint256)": {
        "details": "See {IERC1155-balanceOf}. Requirements: - `account` cannot be the zero address."
      },
      "balanceOfBatch(address[],uint256[])": {
        "details": "See {IERC1155-balanceOfBatch}. Requirements: - `accounts` and `ids` must have the same length."
      },
      "isApprovedForAll(address,address)": {
        "details": "See {IERC1155-isApprovedForAll}."
      },
      "safeBatchTransferFrom(address,address,uint256[],uint256[],bytes)": {
        "details": "See {IERC1155-safeBatchTransferFrom}."
      },
      "safeTransferFrom(address,address,uint256,uint256,bytes)": {
        "details": "See {IERC1155-safeTransferFrom}."
      },
      "setApprovalForAll(address,bool)": {
        "details": "See {IERC1155-setApprovalForAll}."
      },
      "supportsInterface(bytes4)": {
        "details": "See {IERC165-supportsInterface}."
      },
      "uri(uint256)": {
        "details": "See {IERC1155MetadataURI-uri}. This implementation returns the same URI for *all* token types. It relies on the token type ID substitution mechanism https://eips.ethereum.org/EIPS/eip-1155#metadata[defined in the EIP]. Clients calling this function must replace the `\\{id\\}` substring with the actual token type ID."
      }
    },
    "version": 1
  },
  "userdoc": {
    "kind": "user",
    "methods": {},
    "version": 1
  }
}