{
  "contractName": "RedditAvatar",
  "abi": [
    {
      "inputs": [],
      "stateMutability": "nonpayable",
      "type": "constructor"
    },
    {
      "anonymous": false,
      "inputs": [
        {
          "indexed": true,
          "internalType": "address",
          "name": "account",
          "type": "address"
        },
        {
          "indexed": true,
          "internalType": "address",
          "name": "operator",
          "type": "address"
        },
        {
          "indexed": false,
          "internalType": "bool",
          "name": "approved",
          "type": "bool"
        }
      ],
      "name": "ApprovalForAll",
      "type": "event"
    },
    {
      "anonymous": false,
      "inputs": [
        {
          "indexed": true,
          "internalType": "address",
          "name": "operator",
          "type": "address"
        },
        {
          "indexed": true,
          "internalType": "address",
          "name": "from",
          "type": "address"
        },
        {
          "indexed": true,
          "internalType": "address",
          "name": "to",
          "type": "address"
        },
        {
          "indexed": false,
          "internalType": "uint256[]",
          "name": "ids",
          "type": "uint256[]"
        },
        {
          "indexed": false,
          "internalType": "uint256[]",
          "name": "values",
          "type": "uint256[]"
        }
      ],
      "name": "TransferBatch",
      "type": "event"
    },
    {
      "anonymous": false,
      "inputs": [
        {
          "indexed": true,
          "internalType": "address",
          "name": "operator",
          "type": "address"
        },
        {
          "indexed": true,
          "internalType": "address",
          "name": "from",
          "type": "address"
        },
        {
          "indexed": true,
          "internalType": "address",
          "name": "to",
          "type": "address"
        },
        {
          "indexed": false,
          "internalType": "uint256",
          "name": "id",
          "type": "uint256"
        },
        {
          "indexed": false,
          "internalType": "uint256",
          "name": "value",
          "type": "uint256"
        }
      ],
      "name": "TransferSingle",
      "type": "event"
    },
    {
      "anonymous": false,
      "inputs": [
        {
          "indexed": false,
          "internalType": "string",
          "name": "value",
          "type": "string"
        },
        {
          "indexed": true,
          "internalType": "uint256",
          "name": "id",
          "type": "uint256"
        }
      ],
      "name": "URI",
      "type": "event"
    },
    {
      "inputs": [],
      "name": "DEER",
      "outputs": [
        {
          "internalType": "uint256",
          "name": "",
          "type": "uint256"
        }
      ],
      "stateMutability": "view",
      "type": "function",
      "constant": true
    },
    {
      "inputs": [],
      "name": "SAVATHUN",
      "outputs": [
        {
          "internalType": "uint256",
          "name": "",
          "type": "uint256"
        }
      ],
      "stateMutability": "view",
      "type": "function",
      "constant": true
    },
    {
      "inputs": [
        {
          "internalType": "address",
          "name": "account",
          "type": "address"
        },
        {
          "internalType": "uint256",
          "name": "id",
          "type": "uint256"
        }
      ],
      "name": "balanceOf",
      "outputs": [
        {
          "internalType": "uint256",
          "name": "",
          "type": "uint256"
        }
      ],
      "stateMutability": "view",
      "type": "function",
      "constant": true
    },
    {
      "inputs": [
        {
          "internalType": "address[]",
          "name": "accounts",
          "type": "address[]"
        },
        {
          "internalType": "uint256[]",
          "name": "ids",
          "type": "uint256[]"
        }
      ],
      "name": "balanceOfBatch",
      "outputs": [
        {
          "internalType": "uint256[]",
          "name": "",
          "type": "uint256[]"
        }
      ],
      "stateMutability": "view",
      "type": "function",
      "constant": true
    },
    {
      "inputs": [
        {
          "internalType": "address",
          "name": "account",
          "type": "address"
        },
        {
          "internalType": "address",
          "name": "operator",
          "type": "address"
        }
      ],
      "name": "isApprovedForAll",
      "outputs": [
        {
          "internalType": "bool",
          "name": "",
          "type": "bool"
        }
      ],
      "stateMutability": "view",
      "type": "function",
      "constant": true
    },
    {
      "inputs": [
        {
          "internalType": "address",
          "name": "from",
          "type": "address"
        },
        {
          "internalType": "address",
          "name": "to",
          "type": "address"
        },
        {
          "internalType": "uint256[]",
          "name": "ids",
          "type": "uint256[]"
        },
        {
          "internalType": "uint256[]",
          "name": "amounts",
          "type": "uint256[]"
        },
        {
          "internalType": "bytes",
          "name": "data",
          "type": "bytes"
        }
      ],
      "name": "safeBatchTransferFrom",
      "outputs": [],
      "stateMutability": "nonpayable",
      "type": "function"
    },
    {
      "inputs": [
        {
          "internalType": "address",
          "name": "from",
          "type": "address"
        },
        {
          "internalType": "address",
          "name": "to",
          "type": "address"
        },
        {
          "internalType": "uint256",
          "name": "id",
          "type": "uint256"
        },
        {
          "internalType": "uint256",
          "name": "amount",
          "type": "uint256"
        },
        {
          "internalType": "bytes",
          "name": "data",
          "type": "bytes"
        }
      ],
      "name": "safeTransferFrom",
      "outputs": [],
      "stateMutability": "nonpayable",
      "type": "function"
    },
    {
      "inputs": [
        {
          "internalType": "address",
          "name": "operator",
          "type": "address"
        },
        {
          "internalType": "bool",
          "name": "approved",
          "type": "bool"
        }
      ],
      "name": "setApprovalForAll",
      "outputs": [],
      "stateMutability": "nonpayable",
      "type": "function"
    },
    {
      "inputs": [
        {
          "internalType": "bytes4",
          "name": "interfaceId",
          "type": "bytes4"
        }
      ],
      "name": "supportsInterface",
      "outputs": [
        {
          "internalType": "bool",
          "name": "",
          "type": "bool"
        }
      ],
      "stateMutability": "view",
      "type": "function",
      "constant": true
    },
    {
      "inputs": [
        {
          "internalType": "uint256",
          "name": "_id",
          "type": "uint256"
        }
      ],
      "name": "uri",
      "outputs": [
        {
          "internalType": "string",
          "name": "",
          "type": "string"
        }
      ],
      "stateMutability": "view",
      "type": "function",
      "constant": true
    },
    {
      "inputs": [
        {
          "internalType": "uint256",
          "name": "_id",
          "type": "uint256"
        },
        {
          "internalType": "uint256",
          "name": "_amount",
          "type": "uint256"
        }
      ],
      "name": "mint",
      "outputs": [],
      "stateMutability": "nonpayable",
      "type": "function"
    },
    {
      "inputs": [
        {
          "internalType": "uint256[]",
          "name": "_ids",
          "type": "uint256[]"
        },
        {
          "internalType": "uint256[]",
          "name": "_amounts",
          "type": "uint256[]"
        }
      ],
      "name": "mintBatch",
      "outputs": [],
      "stateMutability": "nonpayable",
      "type": "function"
    },
    {
      "inputs": [
        {
          "internalType": "string",
          "name": "_prefix",
          "type": "string"
        },
        {
          "internalType": "string",
          "name": "_suffix",
          "type": "string"
        }
      ],
      "name": "setMetadataURI",
      "outputs": [],
      "stateMutability": "nonpayable",
      "type": "function"
    }
  ],
  "bytecode": "0x60806040523480156200001157600080fd5b50604051806020016040528060008152506200003381620000c360201b60201c565b5060405180608001604052806058815260200162003e05605891396004908051906020019062000065929190620005d7565b5060405180606001604052806039815260200162003dcc603991396005908051906020019062000097929190620005d7565b50620000bd336001606460405180602001604052806000815250620000df60201b60201c565b62000c86565b8060029080519060200190620000db929190620005d7565b5050565b600073ffffffffffffffffffffffffffffffffffffffff168473ffffffffffffffffffffffffffffffffffffffff16141562000152576040517f08c379a0000000000000000000000000000000000000000000000000000000008152600401620001499062000972565b60405180910390fd5b600062000164620002c760201b60201c565b905060006200017985620002cf60201b60201c565b905060006200018e85620002cf60201b60201c565b9050620001a7836000898585896200039860201b60201c565b8460008088815260200190815260200160002060008973ffffffffffffffffffffffffffffffffffffffff1673ffffffffffffffffffffffffffffffffffffffff1681526020019081526020016000206000828254620002089190620009f9565b925050819055508673ffffffffffffffffffffffffffffffffffffffff16600073ffffffffffffffffffffffffffffffffffffffff168473ffffffffffffffffffffffffffffffffffffffff167fc3d58168c5ae7397731d063d5bbf3d657854427343f4c083240f7aacaa2d0f6289896040516200028892919062000994565b60405180910390a4620002a783600089858589620003a060201b60201c565b620002be83600089898989620003a860201b60201c565b50505050505050565b600033905090565b60606000600167ffffffffffffffff81111562000315577f4e487b7100000000000000000000000000000000000000000000000000000000600052604160045260246000fd5b604051908082528060200260200182016040528015620003445781602001602082028036833780820191505090505b509050828160008151811062000383577f4e487b7100000000000000000000000000000000000000000000000000000000600052603260045260246000fd5b60200260200101818152505080915050919050565b505050505050565b505050505050565b620003d48473ffffffffffffffffffffffffffffffffffffffff166200059860201b620008a01760201c565b1562000590578373ffffffffffffffffffffffffffffffffffffffff1663f23a6e6187878686866040518663ffffffff1660e01b81526004016200041d959493929190620008a6565b602060405180830381600087803b1580156200043857600080fd5b505af19250505080156200046c57506040513d601f19601f820116820180604052508101906200046991906200069e565b60015b62000504576200047b62000ba8565b80620004885750620004c7565b806040517f08c379a0000000000000000000000000000000000000000000000000000000008152600401620004be91906200090a565b60405180910390fd5b6040517f08c379a0000000000000000000000000000000000000000000000000000000008152600401620004fb906200092e565b60405180910390fd5b63f23a6e6160e01b7bffffffffffffffffffffffffffffffffffffffffffffffffffffffff1916817bffffffffffffffffffffffffffffffffffffffffffffffffffffffff1916146200058e576040517f08c379a0000000000000000000000000000000000000000000000000000000008152600401620005859062000950565b60405180910390fd5b505b505050505050565b6000808273ffffffffffffffffffffffffffffffffffffffff16803b806020016040519081016040528181526000908060200190933c51119050919050565b828054620005e59062000af6565b90600052602060002090601f01602090048101928262000609576000855562000655565b82601f106200062457805160ff191683800117855562000655565b8280016001018555821562000655579182015b828111156200065457825182559160200191906001019062000637565b5b50905062000664919062000668565b5090565b5b808211156200068357600081600090555060010162000669565b5090565b600081519050620006988162000c6c565b92915050565b600060208284031215620006b157600080fd5b6000620006c18482850162000687565b91505092915050565b620006d58162000a56565b82525050565b6000620006e882620009c1565b620006f48185620009d7565b93506200070681856020860162000ac0565b620007118162000b8a565b840191505092915050565b60006200072982620009cc565b620007358185620009e8565b93506200074781856020860162000ac0565b620007528162000b8a565b840191505092915050565b60006200076c603483620009e8565b91507f455243313135353a207472616e7366657220746f206e6f6e204552433131353560008301527f526563656976657220696d706c656d656e7465720000000000000000000000006020830152604082019050919050565b6000620007d4602883620009e8565b91507f455243313135353a204552433131353552656365697665722072656a6563746560008301527f6420746f6b656e730000000000000000000000000000000000000000000000006020830152604082019050919050565b60006200083c602183620009e8565b91507f455243313135353a206d696e7420746f20746865207a65726f2061646472657360008301527f73000000000000000000000000000000000000000000000000000000000000006020830152604082019050919050565b620008a08162000ab6565b82525050565b600060a082019050620008bd6000830188620006ca565b620008cc6020830187620006ca565b620008db604083018662000895565b620008ea606083018562000895565b8181036080830152620008fe8184620006db565b90509695505050505050565b600060208201905081810360008301526200092681846200071c565b905092915050565b6000602082019050818103600083015262000949816200075d565b9050919050565b600060208201905081810360008301526200096b81620007c5565b9050919050565b600060208201905081810360008301526200098d816200082d565b9050919050565b6000604082019050620009ab600083018562000895565b620009ba602083018462000895565b9392505050565b600081519050919050565b600081519050919050565b600082825260208201905092915050565b600082825260208201905092915050565b600062000a068262000ab6565b915062000a138362000ab6565b9250827fffffffffffffffffffffffffffffffffffffffffffffffffffffffffffffffff0382111562000a4b5762000a4a62000b2c565b5b828201905092915050565b600062000a638262000a96565b9050919050565b60007fffffffff0000000000000000000000000000000000000000000000000000000082169050919050565b600073ffffffffffffffffffffffffffffffffffffffff82169050919050565b6000819050919050565b60005b8381101562000ae057808201518184015260208101905062000ac3565b8381111562000af0576000848401525b50505050565b6000600282049050600182168062000b0f57607f821691505b6020821081141562000b265762000b2562000b5b565b5b50919050565b7f4e487b7100000000000000000000000000000000000000000000000000000000600052601160045260246000fd5b7f4e487b7100000000000000000000000000000000000000000000000000000000600052602260045260246000fd5b6000601f19601f8301169050919050565b60008160e01c9050919050565b600060443d101562000bba5762000c69565b60046000803e62000bcd60005162000b9b565b6308c379a0811462000be0575062000c69565b60405160043d036004823e80513d602482011167ffffffffffffffff8211171562000c0e5750505062000c69565b808201805167ffffffffffffffff81111562000c2f57505050505062000c69565b8060208301013d850181111562000c4c5750505050505062000c69565b62000c578262000b8a565b60208401016040528296505050505050505b90565b62000c778162000a6a565b811462000c8357600080fd5b50565b6131368062000c966000396000f3fe608060405234801561001057600080fd5b50600436106100ce5760003560e01c80632eb2c2d61161008c578063a22cb46511610066578063a22cb46514610223578063d351cfdc1461023f578063e985e9c51461025b578063f242432a1461028b576100ce565b80632eb2c2d6146101b95780634e1273f4146101d55780637762454314610205576100ce565b8062fdd58e146100d357806301ffc9a7146101035780630e89341c146101335780631a157e0a146101635780631b2ef1ca1461017f57806326d71d681461019b575b600080fd5b6100ed60048036038101906100e89190611fe3565b6102a7565b6040516100fa9190612b39565b60405180910390f35b61011d600480360381019061011891906120f7565b610370565b60405161012a919061299c565b60405180910390f35b61014d600480360381019061014891906121b5565b610452565b60405161015a91906129b7565b60405180910390f35b61017d60048036038101906101789190612149565b610489565b005b610199600480360381019061019491906121de565b6104bb565b005b6101a36104da565b6040516101b09190612b39565b60405180910390f35b6101d360048036038101906101ce9190611e59565b6104df565b005b6101ef60048036038101906101ea919061201f565b610580565b6040516101fc9190612943565b60405180910390f35b61020d610731565b60405161021a9190612b39565b60405180910390f35b61023d60048036038101906102389190611fa7565b610736565b005b6102596004803603810190610254919061208b565b61074c565b005b61027560048036038101906102709190611e1d565b61076b565b604051610282919061299c565b60405180910390f35b6102a560048036038101906102a09190611f18565b6107ff565b005b60008073ffffffffffffffffffffffffffffffffffffffff168373ffffffffffffffffffffffffffffffffffffffff161415610318576040517f08c379a000000000000000000000000000000000000000000000000000000000815260040161030f90612a19565b60405180910390fd5b60008083815260200190815260200160002060008473ffffffffffffffffffffffffffffffffffffffff1673ffffffffffffffffffffffffffffffffffffffff16815260200190815260200160002054905092915050565b60007fd9b67a26000000000000000000000000000000000000000000000000000000007bffffffffffffffffffffffffffffffffffffffffffffffffffffffff1916827bffffffffffffffffffffffffffffffffffffffffffffffffffffffff1916148061043b57507f0e89341c000000000000000000000000000000000000000000000000000000007bffffffffffffffffffffffffffffffffffffffffffffffffffffffff1916827bffffffffffffffffffffffffffffffffffffffffffffffffffffffff1916145b8061044b575061044a826108df565b5b9050919050565b6060600461045f83610949565b600560405160200161047393929190612850565b6040516020818303038152906040529050919050565b816004908051906020019061049f929190611b15565b5080600590805190602001906104b6929190611b15565b505050565b6104d633838360405180602001604052806000815250610af6565b5050565b600181565b6104e7610ca7565b73ffffffffffffffffffffffffffffffffffffffff168573ffffffffffffffffffffffffffffffffffffffff16148061052d575061052c85610527610ca7565b61076b565b5b61056c576040517f08c379a000000000000000000000000000000000000000000000000000000000815260040161056390612a79565b60405180910390fd5b6105798585858585610caf565b5050505050565b606081518351146105c6576040517f08c379a00000000000000000000000000000000000000000000000000000000081526004016105bd90612ad9565b60405180910390fd5b6000835167ffffffffffffffff811115610609577f4e487b7100000000000000000000000000000000000000000000000000000000600052604160045260246000fd5b6040519080825280602002602001820160405280156106375781602001602082028036833780820191505090505b50905060005b8451811015610726576106d0858281518110610682577f4e487b7100000000000000000000000000000000000000000000000000000000600052603260045260246000fd5b60200260200101518583815181106106c3577f4e487b7100000000000000000000000000000000000000000000000000000000600052603260045260246000fd5b60200260200101516102a7565b828281518110610709577f4e487b7100000000000000000000000000000000000000000000000000000000600052603260045260246000fd5b6020026020010181815250508061071f90612e9a565b905061063d565b508091505092915050565b600281565b610748610741610ca7565b838361101d565b5050565b6107673383836040518060200160405280600081525061118a565b5050565b6000600160008473ffffffffffffffffffffffffffffffffffffffff1673ffffffffffffffffffffffffffffffffffffffff16815260200190815260200160002060008373ffffffffffffffffffffffffffffffffffffffff1673ffffffffffffffffffffffffffffffffffffffff16815260200190815260200160002060009054906101000a900460ff16905092915050565b610807610ca7565b73ffffffffffffffffffffffffffffffffffffffff168573ffffffffffffffffffffffffffffffffffffffff16148061084d575061084c85610847610ca7565b61076b565b5b61088c576040517f08c379a000000000000000000000000000000000000000000000000000000000815260040161088390612a39565b60405180910390fd5b6108998585858585611403565b5050505050565b6000808273ffffffffffffffffffffffffffffffffffffffff16803b806020016040519081016040528181526000908060200190933c51119050919050565b60007f01ffc9a7000000000000000000000000000000000000000000000000000000007bffffffffffffffffffffffffffffffffffffffffffffffffffffffff1916827bffffffffffffffffffffffffffffffffffffffffffffffffffffffff1916149050919050565b60606000821415610991576040518060400160405280600181526020017f30000000000000000000000000000000000000000000000000000000000000008152509050610af1565b600082905060005b600082146109c35780806109ac90612e9a565b915050600a826109bc9190612d4d565b9150610999565b60008167ffffffffffffffff811115610a05577f4e487b7100000000000000000000000000000000000000000000000000000000600052604160045260246000fd5b6040519080825280601f01601f191660200182016040528015610a375781602001600182028036833780820191505090505b5090505b60008514610aea57600182610a509190612d7e565b9150600a85610a5f9190612ee3565b6030610a6b9190612cf7565b60f81b818381518110610aa7577f4e487b7100000000000000000000000000000000000000000000000000000000600052603260045260246000fd5b60200101907effffffffffffffffffffffffffffffffffffffffffffffffffffffffffffff1916908160001a905350600a85610ae39190612d4d565b9450610a3b565b8093505050505b919050565b600073ffffffffffffffffffffffffffffffffffffffff168473ffffffffffffffffffffffffffffffffffffffff161415610b66576040517f08c379a0000000000000000000000000000000000000000000000000000000008152600401610b5d90612b19565b60405180910390fd5b6000610b70610ca7565b90506000610b7d8561169f565b90506000610b8a8561169f565b9050610b9b83600089858589611765565b8460008088815260200190815260200160002060008973ffffffffffffffffffffffffffffffffffffffff1673ffffffffffffffffffffffffffffffffffffffff1681526020019081526020016000206000828254610bfa9190612cf7565b925050819055508673ffffffffffffffffffffffffffffffffffffffff16600073ffffffffffffffffffffffffffffffffffffffff168473ffffffffffffffffffffffffffffffffffffffff167fc3d58168c5ae7397731d063d5bbf3d657854427343f4c083240f7aacaa2d0f628989604051610c78929190612b54565b60405180910390a4610c8f8360008985858961176d565b610c9e83600089898989611775565b50505050505050565b600033905090565b8151835114610cf3576040517f08c379a0000000000000000000000000000000000000000000000000000000008152600401610cea90612af9565b60405180910390fd5b600073ffffffffffffffffffffffffffffffffffffffff168473ffffffffffffffffffffffffffffffffffffffff161415610d63576040517f08c379a0000000000000000000000000000000000000000000000000000000008152600401610d5a90612a59565b60405180910390fd5b6000610d6d610ca7565b9050610d7d818787878787611765565b60005b8451811015610f7a576000858281518110610dc4577f4e487b7100000000000000000000000000000000000000000000000000000000600052603260045260246000fd5b602002602001015190506000858381518110610e09577f4e487b7100000000000000000000000000000000000000000000000000000000600052603260045260246000fd5b60200260200101519050600080600084815260200190815260200160002060008b73ffffffffffffffffffffffffffffffffffffffff1673ffffffffffffffffffffffffffffffffffffffff16815260200190815260200160002054905081811015610eaa576040517f08c379a0000000000000000000000000000000000000000000000000000000008152600401610ea190612a99565b60405180910390fd5b81810360008085815260200190815260200160002060008c73ffffffffffffffffffffffffffffffffffffffff1673ffffffffffffffffffffffffffffffffffffffff168152602001908152602001600020819055508160008085815260200190815260200160002060008b73ffffffffffffffffffffffffffffffffffffffff1673ffffffffffffffffffffffffffffffffffffffff1681526020019081526020016000206000828254610f5f9190612cf7565b9250508190555050505080610f7390612e9a565b9050610d80565b508473ffffffffffffffffffffffffffffffffffffffff168673ffffffffffffffffffffffffffffffffffffffff168273ffffffffffffffffffffffffffffffffffffffff167f4a39dc06d4c0dbc64b70af90fd698a233a518aa5d07e595d983b8c0526c8f7fb8787604051610ff1929190612965565b60405180910390a461100781878787878761176d565b611015818787878787611945565b505050505050565b8173ffffffffffffffffffffffffffffffffffffffff168373ffffffffffffffffffffffffffffffffffffffff16141561108c576040517f08c379a000000000000000000000000000000000000000000000000000000000815260040161108390612ab9565b60405180910390fd5b80600160008573ffffffffffffffffffffffffffffffffffffffff1673ffffffffffffffffffffffffffffffffffffffff16815260200190815260200160002060008473ffffffffffffffffffffffffffffffffffffffff1673ffffffffffffffffffffffffffffffffffffffff16815260200190815260200160002060006101000a81548160ff0219169083151502179055508173ffffffffffffffffffffffffffffffffffffffff168373ffffffffffffffffffffffffffffffffffffffff167f17307eab39ab6107e8899845ad3d59bd9653f200f220920489ca2b5937696c318360405161117d919061299c565b60405180910390a3505050565b600073ffffffffffffffffffffffffffffffffffffffff168473ffffffffffffffffffffffffffffffffffffffff1614156111fa576040517f08c379a00000000000000000000000000000000000000000000000000000000081526004016111f190612b19565b60405180910390fd5b815183511461123e576040517f08c379a000000000000000000000000000000000000000000000000000000000815260040161123590612af9565b60405180910390fd5b6000611248610ca7565b905061125981600087878787611765565b60005b845181101561135e5783818151811061129e577f4e487b7100000000000000000000000000000000000000000000000000000000600052603260045260246000fd5b60200260200101516000808784815181106112e2577f4e487b7100000000000000000000000000000000000000000000000000000000600052603260045260246000fd5b6020026020010151815260200190815260200160002060008873ffffffffffffffffffffffffffffffffffffffff1673ffffffffffffffffffffffffffffffffffffffff16815260200190815260200160002060008282546113449190612cf7565b92505081905550808061135690612e9a565b91505061125c565b508473ffffffffffffffffffffffffffffffffffffffff16600073ffffffffffffffffffffffffffffffffffffffff168273ffffffffffffffffffffffffffffffffffffffff167f4a39dc06d4c0dbc64b70af90fd698a233a518aa5d07e595d983b8c0526c8f7fb87876040516113d6929190612965565b60405180910390a46113ed8160008787878761176d565b6113fc81600087878787611945565b5050505050565b600073ffffffffffffffffffffffffffffffffffffffff168473ffffffffffffffffffffffffffffffffffffffff161415611473576040517f08c379a000000000000000000000000000000000000000000000000000000000815260040161146a90612a59565b60405180910390fd5b600061147d610ca7565b9050600061148a8561169f565b905060006114978561169f565b90506114a7838989858589611765565b600080600088815260200190815260200160002060008a73ffffffffffffffffffffffffffffffffffffffff1673ffffffffffffffffffffffffffffffffffffffff1681526020019081526020016000205490508581101561153e576040517f08c379a000000000000000000000000000000000000000000000000000000000815260040161153590612a99565b60405180910390fd5b85810360008089815260200190815260200160002060008b73ffffffffffffffffffffffffffffffffffffffff1673ffffffffffffffffffffffffffffffffffffffff168152602001908152602001600020819055508560008089815260200190815260200160002060008a73ffffffffffffffffffffffffffffffffffffffff1673ffffffffffffffffffffffffffffffffffffffff16815260200190815260200160002060008282546115f39190612cf7565b925050819055508773ffffffffffffffffffffffffffffffffffffffff168973ffffffffffffffffffffffffffffffffffffffff168573ffffffffffffffffffffffffffffffffffffffff167fc3d58168c5ae7397731d063d5bbf3d657854427343f4c083240f7aacaa2d0f628a8a604051611670929190612b54565b60405180910390a4611686848a8a86868a61176d565b611694848a8a8a8a8a611775565b505050505050505050565b60606000600167ffffffffffffffff8111156116e4577f4e487b7100000000000000000000000000000000000000000000000000000000600052604160045260246000fd5b6040519080825280602002602001820160405280156117125781602001602082028036833780820191505090505b5090508281600081518110611750577f4e487b7100000000000000000000000000000000000000000000000000000000600052603260045260246000fd5b60200260200101818152505080915050919050565b505050505050565b505050505050565b6117948473ffffffffffffffffffffffffffffffffffffffff166108a0565b1561193d578373ffffffffffffffffffffffffffffffffffffffff1663f23a6e6187878686866040518663ffffffff1660e01b81526004016117da9594939291906128e9565b602060405180830381600087803b1580156117f457600080fd5b505af192505050801561182557506040513d601f19601f820116820180604052508101906118229190612120565b60015b6118b457611831612fee565b8061183c5750611879565b806040517f08c379a000000000000000000000000000000000000000000000000000000000815260040161187091906129b7565b60405180910390fd5b6040517f08c379a00000000000000000000000000000000000000000000000000000000081526004016118ab906129d9565b60405180910390fd5b63f23a6e6160e01b7bffffffffffffffffffffffffffffffffffffffffffffffffffffffff1916817bffffffffffffffffffffffffffffffffffffffffffffffffffffffff19161461193b576040517f08c379a0000000000000000000000000000000000000000000000000000000008152600401611932906129f9565b60405180910390fd5b505b505050505050565b6119648473ffffffffffffffffffffffffffffffffffffffff166108a0565b15611b0d578373ffffffffffffffffffffffffffffffffffffffff1663bc197c8187878686866040518663ffffffff1660e01b81526004016119aa959493929190612881565b602060405180830381600087803b1580156119c457600080fd5b505af19250505080156119f557506040513d601f19601f820116820180604052508101906119f29190612120565b60015b611a8457611a01612fee565b80611a0c5750611a49565b806040517f08c379a0000000000000000000000000000000000000000000000000000000008152600401611a4091906129b7565b60405180910390fd5b6040517f08c379a0000000000000000000000000000000000000000000000000000000008152600401611a7b906129d9565b60405180910390fd5b63bc197c8160e01b7bffffffffffffffffffffffffffffffffffffffffffffffffffffffff1916817bffffffffffffffffffffffffffffffffffffffffffffffffffffffff191614611b0b576040517f08c379a0000000000000000000000000000000000000000000000000000000008152600401611b02906129f9565b60405180910390fd5b505b505050505050565b828054611b2190612e68565b90600052602060002090601f016020900481019282611b435760008555611b8a565b82601f10611b5c57805160ff1916838001178555611b8a565b82800160010185558215611b8a579182015b82811115611b89578251825591602001919060010190611b6e565b5b509050611b979190611b9b565b5090565b5b80821115611bb4576000816000905550600101611b9c565b5090565b6000611bcb611bc684612bae565b612b7d565b90508083825260208201905082856020860282011115611bea57600080fd5b60005b85811015611c1a5781611c008882611d0c565b845260208401935060208301925050600181019050611bed565b5050509392505050565b6000611c37611c3284612bda565b612b7d565b90508083825260208201905082856020860282011115611c5657600080fd5b60005b85811015611c865781611c6c8882611e08565b845260208401935060208301925050600181019050611c59565b5050509392505050565b6000611ca3611c9e84612c06565b612b7d565b905082815260208101848484011115611cbb57600080fd5b611cc6848285612e26565b509392505050565b6000611ce1611cdc84612c36565b612b7d565b905082815260208101848484011115611cf957600080fd5b611d04848285612e26565b509392505050565b600081359050611d1b816130a4565b92915050565b600082601f830112611d3257600080fd5b8135611d42848260208601611bb8565b91505092915050565b600082601f830112611d5c57600080fd5b8135611d6c848260208601611c24565b91505092915050565b600081359050611d84816130bb565b92915050565b600081359050611d99816130d2565b92915050565b600081519050611dae816130d2565b92915050565b600082601f830112611dc557600080fd5b8135611dd5848260208601611c90565b91505092915050565b600082601f830112611def57600080fd5b8135611dff848260208601611cce565b91505092915050565b600081359050611e17816130e9565b92915050565b60008060408385031215611e3057600080fd5b6000611e3e85828601611d0c565b9250506020611e4f85828601611d0c565b9150509250929050565b600080600080600060a08688031215611e7157600080fd5b6000611e7f88828901611d0c565b9550506020611e9088828901611d0c565b945050604086013567ffffffffffffffff811115611ead57600080fd5b611eb988828901611d4b565b935050606086013567ffffffffffffffff811115611ed657600080fd5b611ee288828901611d4b565b925050608086013567ffffffffffffffff811115611eff57600080fd5b611f0b88828901611db4565b9150509295509295909350565b600080600080600060a08688031215611f3057600080fd5b6000611f3e88828901611d0c565b9550506020611f4f88828901611d0c565b9450506040611f6088828901611e08565b9350506060611f7188828901611e08565b925050608086013567ffffffffffffffff811115611f8e57600080fd5b611f9a88828901611db4565b9150509295509295909350565b60008060408385031215611fba57600080fd5b6000611fc885828601611d0c565b9250506020611fd985828601611d75565b9150509250929050565b60008060408385031215611ff657600080fd5b600061200485828601611d0c565b925050602061201585828601611e08565b9150509250929050565b6000806040838503121561203257600080fd5b600083013567ffffffffffffffff81111561204c57600080fd5b61205885828601611d21565b925050602083013567ffffffffffffffff81111561207557600080fd5b61208185828601611d4b565b9150509250929050565b6000806040838503121561209e57600080fd5b600083013567ffffffffffffffff8111156120b857600080fd5b6120c485828601611d4b565b925050602083013567ffffffffffffffff8111156120e157600080fd5b6120ed85828601611d4b565b9150509250929050565b60006020828403121561210957600080fd5b600061211784828501611d8a565b91505092915050565b60006020828403121561213257600080fd5b600061214084828501611d9f565b91505092915050565b6000806040838503121561215c57600080fd5b600083013567ffffffffffffffff81111561217657600080fd5b61218285828601611dde565b925050602083013567ffffffffffffffff81111561219f57600080fd5b6121ab85828601611dde565b9150509250929050565b6000602082840312156121c757600080fd5b60006121d584828501611e08565b91505092915050565b600080604083850312156121f157600080fd5b60006121ff85828601611e08565b925050602061221085828601611e08565b9150509250929050565b60006122268383612832565b60208301905092915050565b61223b81612db2565b82525050565b600061224c82612c8b565b6122568185612cb9565b935061226183612c66565b8060005b83811015612292578151612279888261221a565b975061228483612cac565b925050600181019050612265565b5085935050505092915050565b6122a881612dc4565b82525050565b60006122b982612c96565b6122c38185612cca565b93506122d3818560208601612e35565b6122dc81612fd0565b840191505092915050565b60006122f282612ca1565b6122fc8185612cdb565b935061230c818560208601612e35565b61231581612fd0565b840191505092915050565b600061232b82612ca1565b6123358185612cec565b9350612345818560208601612e35565b80840191505092915050565b6000815461235e81612e68565b6123688186612cec565b945060018216600081146123835760018114612394576123c7565b60ff198316865281860193506123c7565b61239d85612c76565b60005b838110156123bf578154818901526001820191506020810190506123a0565b838801955050505b50505092915050565b60006123dd603483612cdb565b91507f455243313135353a207472616e7366657220746f206e6f6e204552433131353560008301527f526563656976657220696d706c656d656e7465720000000000000000000000006020830152604082019050919050565b6000612443602883612cdb565b91507f455243313135353a204552433131353552656365697665722072656a6563746560008301527f6420746f6b656e730000000000000000000000000000000000000000000000006020830152604082019050919050565b60006124a9602b83612cdb565b91507f455243313135353a2062616c616e636520717565727920666f7220746865207a60008301527f65726f20616464726573730000000000000000000000000000000000000000006020830152604082019050919050565b600061250f602983612cdb565b91507f455243313135353a2063616c6c6572206973206e6f74206f776e6572206e6f7260008301527f20617070726f76656400000000000000000000000000000000000000000000006020830152604082019050919050565b6000612575602583612cdb565b91507f455243313135353a207472616e7366657220746f20746865207a65726f20616460008301527f64726573730000000000000000000000000000000000000000000000000000006020830152604082019050919050565b60006125db603283612cdb565b91507f455243313135353a207472616e736665722063616c6c6572206973206e6f742060008301527f6f776e6572206e6f7220617070726f76656400000000000000000000000000006020830152604082019050919050565b6000612641602a83612cdb565b91507f455243313135353a20696e73756666696369656e742062616c616e636520666f60008301527f72207472616e73666572000000000000000000000000000000000000000000006020830152604082019050919050565b60006126a7602983612cdb565b91507f455243313135353a2073657474696e6720617070726f76616c2073746174757360008301527f20666f722073656c6600000000000000000000000000000000000000000000006020830152604082019050919050565b600061270d602983612cdb565b91507f455243313135353a206163636f756e747320616e6420696473206c656e67746860008301527f206d69736d6174636800000000000000000000000000000000000000000000006020830152604082019050919050565b6000612773602883612cdb565b91507f455243313135353a2069647320616e6420616d6f756e7473206c656e6774682060008301527f6d69736d617463680000000000000000000000000000000000000000000000006020830152604082019050919050565b60006127d9602183612cdb565b91507f455243313135353a206d696e7420746f20746865207a65726f2061646472657360008301527f73000000000000000000000000000000000000000000000000000000000000006020830152604082019050919050565b61283b81612e1c565b82525050565b61284a81612e1c565b82525050565b600061285c8286612351565b91506128688285612320565b91506128748284612351565b9150819050949350505050565b600060a0820190506128966000830188612232565b6128a36020830187612232565b81810360408301526128b58186612241565b905081810360608301526128c98185612241565b905081810360808301526128dd81846122ae565b90509695505050505050565b600060a0820190506128fe6000830188612232565b61290b6020830187612232565b6129186040830186612841565b6129256060830185612841565b818103608083015261293781846122ae565b90509695505050505050565b6000602082019050818103600083015261295d8184612241565b905092915050565b6000604082019050818103600083015261297f8185612241565b905081810360208301526129938184612241565b90509392505050565b60006020820190506129b1600083018461229f565b92915050565b600060208201905081810360008301526129d181846122e7565b905092915050565b600060208201905081810360008301526129f2816123d0565b9050919050565b60006020820190508181036000830152612a1281612436565b9050919050565b60006020820190508181036000830152612a328161249c565b9050919050565b60006020820190508181036000830152612a5281612502565b9050919050565b60006020820190508181036000830152612a7281612568565b9050919050565b60006020820190508181036000830152612a92816125ce565b9050919050565b60006020820190508181036000830152612ab281612634565b9050919050565b60006020820190508181036000830152612ad28161269a565b9050919050565b60006020820190508181036000830152612af281612700565b9050919050565b60006020820190508181036000830152612b1281612766565b9050919050565b60006020820190508181036000830152612b32816127cc565b9050919050565b6000602082019050612b4e6000830184612841565b92915050565b6000604082019050612b696000830185612841565b612b766020830184612841565b9392505050565b6000604051905081810181811067ffffffffffffffff82111715612ba457612ba3612fa1565b5b8060405250919050565b600067ffffffffffffffff821115612bc957612bc8612fa1565b5b602082029050602081019050919050565b600067ffffffffffffffff821115612bf557612bf4612fa1565b5b602082029050602081019050919050565b600067ffffffffffffffff821115612c2157612c20612fa1565b5b601f19601f8301169050602081019050919050565b600067ffffffffffffffff821115612c5157612c50612fa1565b5b601f19601f8301169050602081019050919050565b6000819050602082019050919050565b60008190508160005260206000209050919050565b600081519050919050565b600081519050919050565b600081519050919050565b6000602082019050919050565b600082825260208201905092915050565b600082825260208201905092915050565b600082825260208201905092915050565b600081905092915050565b6000612d0282612e1c565b9150612d0d83612e1c565b9250827fffffffffffffffffffffffffffffffffffffffffffffffffffffffffffffffff03821115612d4257612d41612f14565b5b828201905092915050565b6000612d5882612e1c565b9150612d6383612e1c565b925082612d7357612d72612f43565b5b828204905092915050565b6000612d8982612e1c565b9150612d9483612e1c565b925082821015612da757612da6612f14565b5b828203905092915050565b6000612dbd82612dfc565b9050919050565b60008115159050919050565b60007fffffffff0000000000000000000000000000000000000000000000000000000082169050919050565b600073ffffffffffffffffffffffffffffffffffffffff82169050919050565b6000819050919050565b82818337600083830152505050565b60005b83811015612e53578082015181840152602081019050612e38565b83811115612e62576000848401525b50505050565b60006002820490506001821680612e8057607f821691505b60208210811415612e9457612e93612f72565b5b50919050565b6000612ea582612e1c565b91507fffffffffffffffffffffffffffffffffffffffffffffffffffffffffffffffff821415612ed857612ed7612f14565b5b600182019050919050565b6000612eee82612e1c565b9150612ef983612e1c565b925082612f0957612f08612f43565b5b828206905092915050565b7f4e487b7100000000000000000000000000000000000000000000000000000000600052601160045260246000fd5b7f4e487b7100000000000000000000000000000000000000000000000000000000600052601260045260246000fd5b7f4e487b7100000000000000000000000000000000000000000000000000000000600052602260045260246000fd5b7f4e487b7100000000000000000000000000000000000000000000000000000000600052604160045260246000fd5b6000601f19601f8301169050919050565b60008160e01c9050919050565b600060443d1015612ffe576130a1565b60046000803e61300f600051612fe1565b6308c379a0811461302057506130a1565b60405160043d036004823e80513d602482011167ffffffffffffffff8211171561304c575050506130a1565b808201805167ffffffffffffffff81111561306b5750505050506130a1565b8060208301013d8501811115613086575050505050506130a1565b61308f82612fd0565b60208401016040528296505050505050505b90565b6130ad81612db2565b81146130b857600080fd5b50565b6130c481612dc4565b81146130cf57600080fd5b50565b6130db81612dd0565b81146130e657600080fd5b50565b6130f281612e1c565b81146130fd57600080fd5b5056fea2646970667358221220fff920b9b837030fa7c7cb3bc665db232bbafb253988d2023ca95f5cbf8ef8b164736f6c634300080000332e706e673f616c743d6d6564696126746f6b656e3d39396536333135322d663762632d343232382d383330332d35653236393364303664393968747470733a2f2f666972656261736573746f726167652e676f6f676c65617069732e636f6d2f76302f622f6d792d7265646469742d6176617461722e61707073706f742e636f6d2f6f2f7265646469742d617661746172",
  "immutableReferences": {},
  "source": "// SPDX-License-Identifier: MIT\n\npragma solidity ^0.8.0;\n\nimport \"../node_modules/@openzeppelin/contracts/token/ERC1155/ERC1155.sol\";\nimport \"../node_modules/@openzeppelin/contracts/utils/Counters.sol\";\nimport \"../node_modules/@openzeppelin/contracts/utils/Strings.sol\";\n\ncontract RedditAvatar is ERC1155 {\n    using Counters for Counters.Counter;\n    Counters.Counter private _tokenCounter;\n\n    uint256 public constant SAVATHUN = 1;\n    uint256 public constant DEER = 2;\n\n    string baseMetadataURIPrefix;\n    string baseMetadataURISuffix;\n\n    // \n    constructor() ERC1155(\"\"){\n        baseMetadataURIPrefix = \"https://firebasestorage.googleapis.com/v0/b/my-reddit-avatar.appspot.com/o/reddit-avatar\";\n        baseMetadataURISuffix = \".png?alt=media&token=99e63152-f7bc-4228-8303-5e2693d06d99\";\n\n        _mint(msg.sender, SAVATHUN, 100, \"\");\n    }\n\n    function uri(uint256 _id) public view override returns (string memory) {\n    // \"https://~~~\" + tokenID + \".json\" \n\t// OpenSea\n        return string(abi.encodePacked(\n            baseMetadataURIPrefix,\n            Strings.toString(_id),\n            baseMetadataURISuffix\n        ));\n    }\n    \n    // msg.sendermint()\n    function mint(uint256 _id, uint256 _amount) public {\n        _mint(msg.sender, _id, _amount, \"\");\n    }\n\n    // mint()\n    function mintBatch(uint256[] memory _ids, uint256[] memory _amounts) public {\n        _mintBatch(msg.sender, _ids, _amounts, \"\");\n    }\n\n    // URI\n    function setMetadataURI(string memory _prefix, string memory _suffix) public {\n        baseMetadataURIPrefix = _prefix;\n        baseMetadataURISuffix = _suffix;\n    }\n}\n",
  "sourcePath": "/Users/takagihrs/Desktop/MyProject/dapp/reddit-avatar-on-ERC1155/contracts/RedditAvater.sol",
  "compiler": {
    "name": "solc",
    "version": "0.8.0+commit.c7dfd78e.Emscripten.clang"
  },
  "schemaVersion": "3.4.7",
  "updatedAt": "2022-05-07T08:30:00.141Z",
  "networkType": "ethereum",
  "devdoc": {
    "kind": "dev",
    "methods": {
      "balanceOf(address,uint256)": {
        "details": "See {IERC1155-balanceOf}. Requirements: - `account` cannot be the zero address."
      },
      "balanceOfBatch(address[],uint256[])": {
        "details": "See {IERC1155-balanceOfBatch}. Requirements: - `accounts` and `ids` must have the same length."
      },
      "isApprovedForAll(address,address)": {
        "details": "See {IERC1155-isApprovedForAll}."
      },
      "safeBatchTransferFrom(address,address,uint256[],uint256[],bytes)": {
        "details": "See {IERC1155-safeBatchTransferFrom}."
      },
      "safeTransferFrom(address,address,uint256,uint256,bytes)": {
        "details": "See {IERC1155-safeTransferFrom}."
      },
      "setApprovalForAll(address,bool)": {
        "details": "See {IERC1155-setApprovalForAll}."
      },
      "supportsInterface(bytes4)": {
        "details": "See {IERC165-supportsInterface}."
      }
    },
    "version": 1
  },
  "userdoc": {
    "kind": "user",
    "methods": {},
    "version": 1
  }
}